:040000007AEF00F0A3
:100008003982FACF07F0FBCF08F0E9CF09F0EACF41
:100018000AF0E1CF0BF0E2CF0CF0D9CF0DF0DACF38
:100028000EF0F3CF0FF0F4CF10F0F6CF11F0F7CFBA
:1000380012F0F8CF13F0F5CF14F09DB69EA618D0A5
:10004800C698C6BC02D0C6AE05D0C9CF37F0C69C8C
:10005800C69EC688C850C918D8A403D03480C79093
:10006800C68834A004D0C9CF37F0C68834909E968D
:10007800F2BAF2A41DD0348432C001F033C002F0C9
:10008800030E046EE80E036E1DEC01F0D8900232E8
:100098000132D89002320132011E021E014A022AA0
:1000A800FC0E0124D66EFF0E0220D76ED58EF29478
:1000B80014C0F5FF13C0F8FF12C0F7FF11C0F6FF18
:1000C80010C0F4FF0FC0F3FF0EC0DAFF0DC0D9FF58
:1000D8000CC0E2FF0BC0E1FF0AC0EAFF09C0E9FF5C
:1000E80008C0FBFF07C0FAFF399211003FEF01F08B
:1000F8001FC029F02A6A29502A6E296A1E5029121F
:10010800295000081C24366E3650156E166A15BE26
:10011800160632C017F033C018F00AEC01F015507B
:100128002426165025223550206E216A201E211EB5
:10013800204A212A29502024156E2A502120166E83
:1001480032C017F033C018F0E1EC00F015C026F00B
:1001580016C027F03650156E166A15BE160630C042
:1001680017F031C018F00AEC01F015C020F016C0E5
:1001780021F02EC015F02FC016F024C017F025C0AE
:1001880018F00AEC01F015502026165021222CC038
:1001980015F02DC016F026C017F027C018F00AEC8D
:1001A80001F015502024226E16502120236E29C0FC
:1001B80035F0000E286E28501200000E1A6E000E40
:1001C800196E17501810D8B41CD0010E1B6E04D02D
:1001D800D890173618361B2A18AEFAD7D890193681
:1001E8001A361750155C18501658D8A005D0175055
:1001F800155E1850165A1980D890183217321B2ECF
:10020800EDD719C015F01AC016F0120015501702D4
:10021800F3CF19F0F4CF1AF015501802F3501A263C
:1002280016501702F3501A2619C015F01AC016F006
:10023800120001500302F3CF05F0F4CF06F001508D
:100248000402F350062602500302F350062605C0A6
:1002580001F006C002F0120034B2349234A4120045
:1002680038C01CF01D6A66CF1EF067CF1FF07CEC0B
:1002780000F02B6E120000EE2CF00D0EEE6AE80670
:10028800FDE13990399200014AEF01F053EC01F099
:100298005CEC01F064EC01F030EC01F0FDD78B94DC
:1002A80082948B928292958695849494949212006B
:1002B8000F0EBD6E070ECA6E0F0EBA6ECB68120017
:0E02C8009D869F86F28AF184D08EF28E1200FF
:020000040020DA
:08000000FFFFFFFFFFFFFFFF00
:020000040030CA
:0E000000FFCC0F3E3C9D81FF0FC00FE00F4074
:00000001FF
